:100000000C94E2000C940A010C940A010C940A016D
:100010000C940A010C940A010C940A010C940A0134
:100020000C940A010C940A010C940A010C940A0124
:100030000C940A010C940A010C940A010C940A0114
:100040000C9496030C940A010C94E7020C94C102E0
:100050000C940A010C940A010C940A010C940A01F4
:100060000C94E0030C940A017C3C3E5E2B3D3F2F38
:100070005B5D3B2C2A225C000000000800020100AE
:100080000003040700000000000000000000000062
:10009000250028002B0000000000240027002A0073
:1000A000040404040404040402020202020203031E
:1000B0000303030301020408102040800102040826
:1000C000102001020408102000407A10F35A00A00A
:1000D000724E18090010A5D4E80000E87648170011
:1000E00000E40B54020000CA9A3B000000E1F50551
:1000F000000080969800000040420F000000A0869B
:1001000001000000102700000000E80300000000CC
:100110006400000000000A00000000000100000070
:1001200000002C76D888DC674F0823DFC1DFAE598A
:10013000E1B1B796E5E3E453C63AE651997696E81D
:10014000E6C28426EB898C9B62ED407C6FFCEFBCA1
:100150009C9F40F2BAA56FA5F490055A2AF75C93CC
:100160006B6CF9676DC11BFCE0E40D47FEF520E602
:10017000B500D0ED902E0300943577050080841EE5
:10018000080000204E0A000000C80C333333330F40
:10019000986E12831141EF8D2114893BE65516CFDD
:1001A000FEE6DB18D1844B381BF77C1D901DA4BBE9
:1001B000E424203284725E228100C9F124ECA1E59E
:1001C0003D27D01611241FBECFEFD8E0DEBFCDBF34
:1001D00011E0A0E0B1E0E2EBFBE302C005900D927C
:1001E000A83CB107D9F725E0A8ECB1E001C01D9209
:1001F000A234B207E1F710E0C2EED0E004C02197CC
:10020000FE010E942417C13ED107C9F70E945E1368
:100210000C94D71D0C940000CF92DF92EF92FF92C6
:100220000F931F93CF93DF936C017A018B01C0E092
:10023000D0E0CE15DF0589F0D8016D918D01D60192
:10024000ED91FC910190F081E02DC6010995892B7B
:1002500011F47E0102C02196ECCFC701DF91CF914E
:100260001F910F91FF90EF90DF90CF900895FC01C8
:10027000918D828D981761F0828DDF01A80FB11DDD
:100280005D968C91928D9F5F9F73928F90E0089501
:100290008FEF9FEF0895FC01918D828D981731F0BB
:1002A000828DE80FF11D858D90E008958FEF9FEF0F
:1002B0000895FC01918D228D892F90E0805C9F4FE5
:1002C000821B91098F73992708958AE494E00E9414
:1002D000590121E0892B09F420E0822F0895FC01C7
:1002E000848DDF01A80FB11DA35ABF4F2C91848DBF
:1002F00090E001968F739927848FA689B7892C93F4
:10030000A089B1898C9180648C93938D848D98138E
:1003100006C00288F389E02D80818F7D8083089557
:10032000EF92FF920F931F93CF93DF93EC0181E045
:10033000888F9B8D8C8D981305C0E889F989808101
:1003400085FD24C0F62E0B8D10E00F5F1F4F0F733D
:100350001127E02E8C8DE8120CC00FB607FCFACFE7
:10036000E889F989808185FFF5CFCE010E946F0170
:10037000F1CF8B8DFE01E80FF11DE35AFF4FF082A4
:100380000B8FEA89FB898081806207C0EE89FF8933
:100390006083E889F98980818064808381E090E0CE
:1003A000DF91CF911F910F91FF90EF900895CF9320
:1003B000DF93EC01888D8823C9F0EA89FB8980816D
:1003C00085FD05C0A889B9898C9186FD0FC00FB63F
:1003D00007FCF5CF808185FFF2CFA889B9898C9180
:1003E00085FFEDCFCE010E946F01E7CFDF91CF9166
:1003F000089580E090E0892B29F00E946501811129
:100400000C940000089585ED8093BC008091BC00A1
:1004100084FDFCCF1092160208954091F001262F22
:1004200030E0240F311D21323105DCF42091160219
:100430002430C9F4FC0180E090E0861758F4309134
:10044000F0012191DC01A253BE4FA30FB11D2C93EB
:100450000196F3CF8091F001680F6093F00180E086
:10046000089581E0089582E0089508958FEF9FEF49
:1004700008958FEF9FEF08958091CD0190E09195C1
:10048000819591090895CF93DF9300D0CDB7DEB762
:10049000CB01642F49835A830E940D024981842F26
:1004A0005A81952F0F900F90DF91CF910895CF93A0
:1004B000DF931F92CDB7DEB7698361E0CE0101966D
:1004C0000E940D0281E090E00F90DF91CF9108959E
:1004D0006115710579F0FB0101900020E9F7319772
:1004E000AF01461B570BDC01ED91FC910280F381BB
:1004F000E02D099480E090E00895CF93DF931F9260
:10050000CDB7DEB7698341E050E0BE016F5F7F4F3A
:100510000E94CA0D0F90DF91CF9108950F931F9302
:10052000CF93DF93EC010E9468028C016EE571E0CD
:10053000CE010E946802800F911FDF91CF911F9121
:100540000F9108950F931F93CF93DF93EC01E881F0
:10055000F981DB0114964D915C9115976D917C9119
:100560000280F381E02D09958C016EE571E0CE01EA
:100570000E946802800F911FDF91CF911F910F9110
:1005800008951F920F920FB60F9211242F933F934D
:100590004F935F936F937F938F939F93AF93BF938B
:1005A000EF93FF938AE494E00E946F01FF91EF9133
:1005B000BF91AF919F918F917F916F915F914F917B
:1005C0003F912F910F900FBE0F901F9018951F9283
:1005D0000F920FB60F9211242F938F939F93EF9347
:1005E000FF93E0915A04F0915B048081E0916004F4
:1005F000F091610482FD12C09081809163048F5F4D
:100600008F7320916404821751F0E0916304F0E04D
:10061000E65BFB4F958F8093630401C08081FF915F
:10062000EF919F918F912F910F900FBE0F901F9080
:10063000189590E0FC01E858FF4F3491FC01EC5410
:10064000FF4F2491FC01E056FF4FE491EE2309F4A3
:100650003BC0332339F1333091F038F43130A9F015
:10066000323001F584B58F7D12C0373091F03830CB
:10067000A1F03430B9F4809180008F7D03C0809167
:1006800080008F77809380000DC084B58F7784BD04
:1006900009C08091B0008F7703C08091B0008F7D3A
:1006A0008093B000F0E0EE0FFF1FE457FF4FA591DD
:1006B000B4918FB7F894EC91611103C020952E236B
:1006C00001C02E2B2C938FBF08953FB7F8948091D3
:1006D000410290914202A0914302B091440226B59A
:1006E000A89B05C02F3F19F00196A11DB11D3FBF6A
:1006F000BA2FA92F982F8827820F911DA11DB11DF8
:10070000BC01CD0142E0660F771F881F991F4A95F3
:10071000D1F708952FB7F89460913D0270913E0291
:1007200080913F02909140022FBF08951F920F9237
:100730000FB60F9211242F933F938F939F93AF93F4
:10074000BF9380913D0290913E02A0913F02B091F3
:10075000400230913C0223E0230F2D3720F4019614
:10076000A11DB11D05C026E8230F0296A11DB11DD4
:1007700020933C0280933D0290933E02A0933F025F
:10078000B09340028091410290914202A0914302B5
:10079000B09144020196A11DB11D80934102909336
:1007A0004202A0934302B0934402BF91AF919F9144
:1007B0008F913F912F910F900FBE0F901F90189522
:1007C0001F920F920FB60F9211242F933F934F93C6
:1007D0005F936F937F938F939F93AF93BF93EF93A9
:1007E000FF938091B900887F803609F49CC068F53A
:1007F000883209F45BC090F4803109F454C038F4B5
:10080000882309F4F6C0883009F44DC0F6C0883159
:1008100009F44CC0803209F45DC0EFC0803409F4A3
:1008200068C048F4803309F455C0883309F0E5C046
:1008300080931502D8C0803509F44FC0883509F47B
:100840005DC0883409F0D9C0D6C0883909F4C7C062
:10085000A8F4883709F467C038F4883609F463C00F
:10086000803709F460C0C9C0883809F4B8C080393D
:1008700009F45FC0803809F0C0C05BC0803B09F458
:1008800086C038F4803A09F466C0883A09F47FC01B
:10089000B4C0803C09F4A7C0883C09F4A4C0883BDC
:1008A00009F48AC0AAC080913B0210C090913A021C
:1008B00080913902981770F5E0913A0281E08E0F2D
:1008C00080933A02F0E0E75EFD4F80818093BB00A9
:1008D00085EC86C0809315028EC0E0913A0281E0DB
:1008E0008E0F80933A028091BB00F0E0E75EFD4FEF
:1008F000808390913A02809139026EC0E0913A0271
:1009000081E08E0F80933A028091BB00F0E0E75EB9
:10091000FD4F80838091180281116DC081E080932A
:10092000170284EA61C083E08093160210921402D9
:10093000CFCF80911402803208F051C0E0911402B0
:1009400081E08E0F809314028091BB00F0E0EC50A8
:10095000FE4F8083BDCF85EC8093BC0010921602C1
:1009600080911402803230F4E0911402F0E0EC50F7
:10097000FE4F10826091140270E0E091F201F0915C
:10098000F30184EF91E009951092140236C084E0DF
:10099000809316021092F1011092F001E091EE01A5
:1009A000F091EF0109958091F001811105C081E07E
:1009B0008093F0011092CE01E091F10181E08E0F61
:1009C0008093F101F0E0E253FE4F80818093BB0001
:1009D0009091F1018091F001981708F479CF85E8A2
:1009E0008093BC000AC085EC8093BC001092160274
:1009F00004C0109215020E940302FF91EF91BF9173
:100A0000AF919F918F917F916F915F914F913F91A6
:100A10002F910F900FBE0F901F9018958091C801D5
:100A20008823A9F1409100015091010160910201D8
:100A30007091030128E432E08091480490914904C8
:100A40000E945F0D811102C080E008954091C901AC
:100A50005091CA016091CB017091CC0141155105B3
:100A60006105710591F028E432E08091480490918D
:100A700049040E945F0D882339F31092C901109236
:100A8000CA011092CB011092CC011092C80181E0F2
:100A900008958F929F92AF92BF92EF92FF920F9321
:100AA0001F93CF934B015C01C42F80910001909163
:100AB0000101A0910201B091030188159905AA05D1
:100AC000BB0501F10E940E05811102C080E020C02B
:100AD00088E4E82E82E0F82E00E012E020E030E02A
:100AE000B501A40180914804909149040E94CB0C67
:100AF000882361F38092000190920101A09202018B
:100B0000B09203018091C801C82BC093C80181E055
:100B1000CF911F910F91FF90EF90BF90AF909F905A
:100B20008F9008954F925F926F927F928F929F92D3
:100B3000AF92BF92CF92DF92EF92FF920F931F93EB
:100B4000CF93DF93EC016A017B0128013901423028
:100B500051056105710510F480E073C089859A859F
:100B6000AB85BC850196A11DB11D84179507A6070D
:100B7000B70790F38B889C88AD88BE888F898031B9
:100B800029F4BB27AF2D9E2D8D2D09C0DB01CA0195
:100B900047E0B695A795979587954A95D1F7880E22
:100BA000991EAA1EBB1E8091000190910101A09187
:100BB0000201B091030188169906AA06BB0679F4D2
:100BC0008F898031A1F4DD24EE24FF24C601880F33
:100BD000991FFC01E85BFD4F5182408219C040E043
:100BE000C501B4010E9449058111EACFB5CFE8944F
:100BF000C7F8DD24EE24FF24C601880F991F880F53
:100C0000991FFC01E85BFD4F408251826282738232
:100C10008091C80181608093C8018A89823080F008
:100C20008D819E81AF81B885880E991EAA1EBB1E3C
:100C30008092C9019092CA01A092CB01B092CC01DE
:100C400081E0DF91CF911F910F91FF90EF90DF90A6
:100C5000CF90BF90AF909F908F907F906F905F905C
:100C60004F9008958F929F92AF92BF92CF92DF9252
:100C7000EF92FF920F931F93CF93DF93FC01818537
:100C80009285A385B4850196A11DB11D8417950792
:100C9000A607B70710F480E05CC083899489A58912
:100CA000B689C789C03129F4852E962EA72EBB247C
:100CB00009C04A015B01C7E0B694A7949794879452
:100CC000CA95D1F7E9016A017B018F01BC01CD0111
:100CD000680D791D8A1D9B1D809000019090010177
:100CE000A0900201B0900301681579058A059B0563
:100CF00099F4F80187898031A9F4B701A601552735
:100D000066277727440F551FFA01E85BFD4F808166
:100D10009181A0E0B0E018C040E00E944905811137
:100D2000E8CFB9CFB701A6014F77552766277727B8
:100D3000440F551F440F551FFA01E85BFD4F80819A
:100D40009181A281B381BF7088839983AA83BB8379
:100D500081E0DF91CF911F910F91FF90EF90DF9095
:100D6000CF90BF90AF909F908F9008954F925F92D9
:100D70006F927F92AF92BF92CF92DF92EF92FF92EB
:100D80000F931F93CF93DF9300D000D0CDB7DEB782
:100D90008C0149835A836B837C835901C12CD12CEC
:100DA0007601412C82E0582E612C712C49815A81A8
:100DB0006B817C819E012F5F3F4FC8010E943206EC
:100DC000882351F1D301C201F801058404C0880FC2
:100DD000991FAA1FBB1F0A94D2F7C80ED91EEA1E7C
:100DE000FB1E49815A816B817C818789803129F082
:100DF00088EF9FEFAFEFBFE004C088EF9FEFA0E068
:100E0000B0E0481759076A077B0780F2F501C082F6
:100E1000D182E282F38281E00F900F900F900F90C9
:100E2000DF91CF911F910F91FF90EF90DF90CF90C6
:100E3000BF90AF907F906F905F904F9008954F92CA
:100E40005F926F927F92AF92BF92CF92DF92EF92BA
:100E5000FF920F931F93CF93DF93CDB7DEB72B97FE
:100E60000FB6F894DEBF0FBECDBF7C01CE01019658
:100E70006C01FC0190E28BE08C0D91938E13FDCF01
:100E8000DA0130E047E09D91992339F19E3219F063
:100E9000E8E6F0E00AC04A3009F472C138E04AE0FE
:100EA000F2CF3196891709F46BC184918111F9CF82
:100EB000431708F465C18FED890F8E3508F060C1C6
:100EC00081E0830FF601E30FF11D3FE9390F3A315D
:100ED00008F490529083382FD6CF8981803209F45C
:100EE0004FC1B22E8B01DB015B968D919C915C977B
:100EF000F701948F838F16961D921D921D921C925E
:100F00001997FB011286138614861586712CF80139
:100F100082859385A485B5854389548965897689B9
:100F200084179507A607B70708F061C025E0B695B6
:100F3000A795979587952A95D1F7F82FFF706F2E73
:100F4000D80115968C91823008F41AC1C8010E940C
:100F5000FC0F97FD15C1F80182859385A485B585A1
:100F60004F96A11DB11D82879387A487B587F0E2B4
:100F70006F9EC0011124BC01685B7D4F6115710536
:100F800009F4FEC0DB012C91222319F0253EC1F4A7
:100F900027C071100EC0F701628A40910001509184
:100FA0000101609102017091030146875787608BB0
:100FB000718BFC01E85BFD4F8081811113C015C06E
:100FC0004BE050E0C6010E949819892B09F09FCF91
:100FD0008B2D8073803309F4D3C04B2D662DCCC08C
:100FE0007720C9F27724739492CF772473948B2D52
:100FF0008271823109F0C4C07720D1F0D7011E96EA
:101000006D917D918D919C91519741E00E94490590
:10101000882309F4B5C0F7016289F0E26F9FB0013F
:101020001124685B7D4F6115710509F079C0A8C076
:10103000D80115968C91823009F4A2C0C8010E9493
:10104000FD0A882309F49CC0D8015B96ED91FC91C0
:101050005C9716964D905D906D907C901997B2E0DC
:101060004B1A510861087108058404C0440C551CD2
:10107000661C771C0A94D2F786859785A089B1896A
:10108000480E591E6A1E7B1EA480E1E04E1A5108CC
:1010900061087108AA2009F10E940E05882309F44D
:1010A0006FC0E8E4F2E0119224E0E834F207D9F7E7
:1010B000D301C2018A0D911DA11DB11D80930001B4
:1010C00090930101A0930201B09303018091C801A4
:1010D00081608093C801AA94DDCFD8015B96ED9121
:1010E000FC915C9780E092E0A0E0B0E0058404C051
:1010F000880F991FAA1FBB1F0A94D2F7F8014389D2
:10110000548965897689840F951FA61FB71F838B25
:10111000948BA58BB68BD70152961C9268E472E033
:1011200080E2FB0111928A95E9F78BE0F601DB0181
:1011300001900D928A95E1F781E298E2DB015196E8
:101140009C938E93509720E038E01F963C932E930B
:101150001E9753969C938E93529759969C938E9379
:10116000589757963C932E9356970E940E058823C6
:1011700039F04B2DF7016289C7010E94E90901C0CE
:1011800080E02B960FB6F894DEBF0FBECDBFDF9187
:10119000CF911F910F91FF90EF90DF90CF90BF9074
:1011A000AF907F906F905F904F900895DC015996BB
:1011B000ED91FC915A973097B9F083899489A5896C
:1011C000B6894285538564857585841B950BA60B6E
:1011D000B70B811520E89207A105B10538F08FEF14
:1011E0009FE7A0E0B0E0089580E090E00895CF93FD
:1011F000DF931F92CDB7DEB76983DC01ED91FC91DF
:101200000280F381E02D41E050E0BE016F5F7F4F2F
:1012100009950F90DF91CF910895CF93DF93EC0163
:101220008D818823A1F18C8187FF2DC06E857F85FC
:101230008889998941E00E944905882341F1EA891A
:1012400080E2E89FF0011124DF01A85BBD4F1097F9
:10125000F1F08D81823050F44B895C896D897E89F3
:101260005C964D935D936D937C935F978F89988D7A
:10127000A98DBA8DE85BFD4F938F828FB58BA48BC0
:101280008C818F778C83DF91CF910C940E0580E059
:10129000DF91CF910895FC01818D928D009711F01F
:1012A0000C940D0908958F929F92AF92BF92CF92A6
:1012B000DF92EF92FF920F931F93CF93DF93EC0196
:1012C0008D81811102C080E077C00B891C892D8936
:1012D0003E890417150726073707A8F36A017B0123
:1012E000823029F4CA86DB86EC86FD860DC0C114E7
:1012F000D104E104F10451F41E821F82188619867C
:101300001A861B861C861D8681E056C08A849B84B3
:10131000AC84BD84EB8DFC8D258530E0275F3F4F8D
:10132000B501A4014150510961097109022E04C09F
:1013300076956795579547950A94D2F7D701C601D8
:101340000197A109B10904C0B695A795979587950E
:101350002A95D2F784179507A607B70720F08928A2
:101360008A288B2849F44F89588D698D7A8D4E8350
:101370005F836887798704C0841B950BA60BB70B26
:101380004C015D018E010A5F1F4F81149104A1047D
:10139000B10409F4A7CF4E815F81688579859801F2
:1013A0008B8D9C8D0E94320691E0891A9108A108CC
:1013B000B1088111EACF87CFDF91CF911F910F91B3
:1013C000FF90EF90DF90CF90BF90AF909F908F9065
:1013D00008958F929F92AF92BF92CF92DF92EF9239
:1013E000FF920F931F93CF93DF9300D000D0CDB720
:1013F000DEB77C0180E2689F600111249601285BC2
:101400003D4FD9011B969C91917121F0842F8274DC
:1014100009F097C0142FF701628B80910001909121
:101420000101A0910201B091030186879787A08BEB
:10143000B18BF601E85BFD4F4489558960E070E0AF
:10144000BA0155274427D70157964D935D936D9365
:101450007C935A97828D938DA0E0B0E0482B592B56
:101460006A2B7B2BD70157964D935D936D937C939D
:101470005A97D9011B968C91887159F4848D958D5A
:10148000A68DB78DF701838B948BA58BB68B81E0EE
:1014900012C0803109F055C097012D5E3F4FD70132
:1014A0005B968D919C915C970E94B606882309F407
:1014B00048C084E0F7018583812F8F70D70114968F
:1014C0008C931497F70116821782108611861A964C
:1014D0001D921D921D921C921D9716FF34C01596E9
:1014E0008C91813071F511FF2CC0F701438954892B
:1014F00065897689452B462B472B09F461C040E06E
:1015000050E0BA01C7010E9453098823D1F0F701C6
:101510008788908CA18CB28CC38CD48C82E090E0B4
:10152000A0E0B0E0F60180839183A283B3839E01A3
:101530002F5F3F4FB501A401C6010E943206811101
:1015400004C080E03DC081E03BC000E010E09801B5
:10155000B501A401C6010E949205882391F38980F8
:101560009A80AB80BC80D60157968C91803129F04F
:1015700088EF9FEFAFEFBFE004C088EF9FEFA0E0E0
:10158000B0E088169906AA06BB0688F2D7015796DE
:101590001D921D921D921C925A97F701138A148A6C
:1015A000158A168A848180688483C7010E940D0988
:1015B000882339F240E050E0BA01C7010E94530984
:1015C0000F900F900F900F90DF91CF911F910F917F
:1015D000FF90EF90DF90CF90BF90AF909F908F9053
:1015E0000895CF93DF93EC010E940D09882311F039
:1015F0001D8281E0DF91CF9108953F924F925F92DB
:101600006F927F928F929F92AF92BF92CF92DF9212
:10161000EF92FF920F931F93CF93DF93CDB7DEB777
:101620002C970FB6F894DEBF0FBECDBF5C01DC0176
:101630005B968D909C905C971696CD90DD90ED908A
:10164000FC901997C114D104E104F10439F0BFEF03
:10165000CB1ADB0AEB0AFB0A312C07C0F401C0806D
:10166000D180E280F38033243394F4018185928524
:10167000A385B4859C01AD012F5F3F4F4F4F5F4F56
:1016800029873A874B875C87260137011D821E8296
:101690001F821886F40181859285A385B4852D81EA
:1016A0003E814F815885281739074A075B0708F0A4
:1016B00063C089859A85AB85BC858C159D05AE0573
:1016C000BF0550F482E0C82ED12CE12CF12C92E021
:1016D000492E512C612C712C9E012F5F3F4FB70179
:1016E000A601C4010E943206882309F445C08981FD
:1016F0009A81AB81BC81892B8A2B8B2B41F02601EF
:1017000037019FEF491A590A690A790A05C0C414BA
:10171000D504E604F70491F02D813E814F81588570
:101720002F5F3F4F4F4F5F4F2D833E834F8358872F
:101730003FEFC31AD30AE30AF30AACCF0FEF1FEF50
:101740002FEF3FE0B301A201C4010E94920588235C
:1017500099F0D50116964D915D916D917C911997F7
:10176000411551056105710549F093018201C401DC
:101770000E949205811102C080E02AC0D501169610
:101780004D925D926D927C921997332051F0D30166
:10179000C2010196A11DB11DF40180839183A28332
:1017A000B383F5018789908DA18DB28D892B8A2B0A
:1017B0008B2B69F4D50157964D925D926D927C9278
:1017C0005A9714968C911497806814968C9381E0A4
:1017D0002C960FB6F894DEBF0FBECDBFDF91CF9130
:1017E0001F910F91FF90EF90DF90CF90BF90AF903F
:1017F0009F908F907F906F905F904F903F90089553
:101800008FB7F894809146028FBF089561E0FC0184
:1018100084810E9419038091450281111092450232
:1018200008958EBD00000DB407FEFDCF8EB508955E
:101830008FEF0C94110C0F931F93CF93DF93EB0159
:101840000E948A038B010E94180C8F3F49F00E946E
:101850008A03601B710B6C177D07A8F380E001C041
:1018600081E0DF91CF911F910F910895CF93DF9386
:10187000EC018E81882389F08F8198859C012F5FF0
:101880003F4F38872F838230924018F40E94180C03
:10189000F3CFCE010E94060C1E82DF91CF910895F6
:1018A0008CBD9DBD0895CF93DF93EC0180914502DF
:1018B000811109C081E0809345028091E7049091F5
:1018C000E8040E94500C60E08C81DF91CF910C9471
:1018D0001903CF92DF92FF920F931F93CF93DF9361
:1018E00000D000D0CDB7DEB76C01F62E29833A8345
:1018F0004B835C830E94360CC6010E94530C6CE241
:1019000071E0C6010E941B0C8F2D80640E94110C97
:1019100008E110E05C814B813A812981DA01C9013B
:10192000002E04C0B695A795979587950A94D2F78F
:1019300029833A834B835C830E94110C0850110960
:1019400029813A814B815C81083F8FEF180731F77D
:10195000FF2029F0E8E0FE1204C087E803C085E913
:1019600001C08FEF0E94110C10E00E94180CF601CC
:10197000828787FF04C01F3F11F01F5FF6CF0F90D3
:101980000F900F900F90DF91CF911F910F91FF90CB
:10199000DF90CF900895AF92BF92CF92DF92EF92F7
:1019A000FF920F931F93CF93DF93EC016901C8015E
:1019B000820F931F8130924008F070C08E8188237F
:1019C00071F088819981AA81BB81481759076A07FC
:1019D0007B0729F48F819885C816D906B0F548830E
:1019E00059836A837B838B85833039F089E0440F88
:1019F000551F661F771F8A95D1F79A01AB0161E1E8
:101A0000CE010E94690C882319F083E08D8346C0C3
:101A10000E948A035B010E94180C8A878F3F49F459
:101A20000E948A036A197B096D327140A0F38FE02E
:101A300003C08E3F31F08DE08D83CE010E94060CF5
:101A40002DC018861F8281E08E838F8198858C152A
:101A50009D0540F40E94180C8F8198850196988707
:101A60008F83F3CF6701E00EF11ECE14DF0431F057
:101A70000E94180CF60181936F01F7CF8F81988532
:101A8000080F191F18870F838985882319F00115FE
:101A9000124048F0CE010E94360C05C0CE010E94D3
:101AA000060C80E001C081E0DF91CF911F910F9182
:101AB000FF90EF90DF90CF90BF90AF900895EF929E
:101AC000FF920F931F93CF93DF93EC0179014115A0
:101AD00051056105710511F482E13CC08B858330AD
:101AE00039F089E0440F551F661F771F8A95D1F79B
:101AF0009A01AB0168E1CE010E94690C882311F0C4
:101B000084E028C08EEF0E94110C87018EEFF81A36
:101B1000F80181918F010E94110C0E151F05C1F76C
:101B20008FEF0E94110C8FEF0E94110C0E94180C75
:101B30008A878F71853031F081E18D83CE010E94DB
:101B4000060C09C068E572E0CE010E941B0C8111F1
:101B500007C085E18D83CE010E94060C80E013C092
:101B600020E030E0A9016DE0CE010E94690C8111F6
:101B700004C00E94180C882311F084E1EBCFCE0141
:101B80000E94060C81E0DF91CF911F910F91FF9091
:101B9000EF9008952F923F924F925F926F927F92B3
:101BA0008F929F92AF92BF92CF92DF92EF92FF926D
:101BB0000F931F93CF93DF9300D000D0CDB7DEB744
:101BC0008C015B011A01DC0115968C91159781300F
:101BD000C9F414968C9181FF15C082FF1BC0F801D7
:101BE000438954896589768982859385A485B585DD
:101BF00084179507A607B70769F0C8010E94530923
:101C0000811108C081E090E0F8019383828380E035
:101C100090E039C1610183C0D8015B968D919C91A0
:101C20005C97FC01248121502A013B0139E0769424
:101C30006794579447943A95D1F7722E74207A019D
:101C4000F1E0FF22772009F476C080E092E08E195F
:101C50009F0946018C159D0508F44C01D8015B963F
:101C60002D913C915C9716968D919D910D90BC9114
:101C7000A02D0297A109B109F901058404C0880FBC
:101C8000991FAA1FBB1F0A94D2F746855785608902
:101C90007189840F951FA61FB71F9C01AD01270DE9
:101CA000311D411D511D29013A01811432E0930675
:101CB00009F088C08091000190910101A09102017A
:101CC000B091030184159505A605B70559F48FEF6A
:101CD0009FEFDC018093000190930101A09302012A
:101CE000B09303019501B301A20180914804909142
:101CF00049040E945F0D882309F484CF9EEFB91A2E
:101D0000C818D908F80182859385A485B585880D02
:101D1000991DA11DB11D82879387A487B587D8011E
:101D20001A964D915D916D917C911D97C114D104CE
:101D300009F072CF87C0E114F10409F086CF16963E
:101D40004D915D916D917C911997411551056105FA
:101D5000710559F457968D919D910D90BC91A02DD0
:101D60000097A105B10541F521C09E012F5F3F4FAE
:101D70000E943206882309F44BCF89819A81AB8176
:101D8000BC81F801238D348DF9012789203129F098
:101D900048EF5FEF6FEF7FE004C048EF5FEF60E078
:101DA00070E084179507A607B70730F0C8010E94B6
:101DB000FD0A81114ACF26CFF80186839783A08739
:101DC000B18743CFE114F10429F5D8011A964D915A
:101DD0005D916D917C911D9753968D919D910D9084
:101DE000BC91A02D481759076A077B0798F00E94FD
:101DF0000E05882309F406CF40920001509201019C
:101E000060920201709203018091C8018160809309
:101E1000C80108C041E0C301B2010E9449058823FE
:101E200009F4F0CED501F701E85BFD4FCF01880D35
:101E3000991DE817F90719F02D912193FACFA80CF5
:101E4000B91C5ECF53968D919D910D90BC91A02DA4
:101E500084179507A607B70740F4F801438B548B06
:101E6000658B768B848180688483D80114968C91ED
:101E700083FD02C0C10107C0C8010E940D0988236B
:101E800009F4C0CEF7CF0F900F900F900F90DF9115
:101E9000CF911F910F91FF90EF90DF90CF90BF9067
:101EA000AF909F908F907F906F905F904F903F90FA
:101EB0002F900895CF93DF93EC01898D9A8D009731
:101EC00039F481E090E09B838A8380E090E00BC04E
:101ED000FC01138212820E94CA0DE98DFA8D2281C3
:101EE0003381232B71F7DF91CF910895FC01DB0142
:101EF00012968D919C9113979383828382E591E052
:101F00009183808314968C911497848315968C9179
:101F10001597858316964D915D916D917C911997DA
:101F200046835783608771871A964D915D916D91B5
:101F30007C911D9742875387648775871E964D91C4
:101F40005D916D917C91519746875787608B718B1E
:101F500052968C915297828B53964D915D916D91D3
:101F60007C915697438B548B658B768B57964D910E
:101F70005D916D917C915A97478B508F618F728FD5
:101F80005B968D919C915C97948F838F0895EF92CF
:101F9000FF920F931F93CF93DF93EC017B018A0194
:101FA0001B821A8288EE93E0A0E0B0E08C839D83D0
:101FB000AE83BF8382E191E0998388838DE190E0D5
:101FC0000E949C179A8F898F009779F02DE1F70175
:101FD000DC0101900D922A95E1F74CE050E0B80148
:101FE000CE010C960E94B519188EDF91CF911F91EA
:101FF0000F91FF90EF9008952F923F924F925F9232
:102000006F927F928F929F92AF92BF92CF92DF9208
:10201000EF92FF920F931F93CF93DF9300D0CDB732
:10202000DEB7FC018581882309F4D9C0848180FF53
:10203000D6C021E02A8343895489658976898285BF
:102040009385A485B585481759076A077B0709F466
:102050001A826F013A81832F90E0DE0111964D01C3
:102060003F01B6E06B0E711C892B09F47DC0D601CF
:102070001A964D915D916D917C911D975A01B1E039
:10208000BB22F60125811A012B0189E05694479461
:10209000379427948A95D1F7838D948D223061F4FB
:1020A000FC01828D938DA48DB58DBC01CD01620D97
:1020B000731D841D951D45C0DC0114961C911150A3
:1020C0001221A114B104D1F4111118C0452B462BD3
:1020D000472B51F4F6018789908DA18DB28D8683AF
:1020E0009783A087B1870AC0468157816085718533
:1020F00093010E943206882309F471C0F601238DF2
:10210000348D86819781A085B1850297A109B10997
:10211000AC01BD01F901058404C0440F551F661FC1
:10212000771F0A94D2F786859785A089B189840F95
:10213000951FA61FB71FBC01CD01610F711D811D29
:10214000911DD60114962C9126FF14C00091000118
:102150001091010120910201309103016017710774
:102160008207930751F506C0FA81FF23C1F18981E7
:1021700090E037C040E00E944905882381F1F501D5
:10218000E85BFD4FD401CF010196E817F90719F07C
:1021900021912D93FACFEFEF8E1A9E0AF6018285D8
:1021A0009385A485B5850196A11DB11D828793876E
:1021B000A487B58780E090E057CF740101E010E07C
:1021C0009501AB01BC0180914804909149040E94A3
:1021D000CB0C882321F0BFEF8B1A9B0ADFCF8FEF48
:1021E0009FEF0F900F90DF91CF911F910F91FF9074
:1021F000EF90DF90CF90BF90AF909F908F907F90A7
:102200006F905F904F903F902F900895FC01818DCB
:10221000928D009711F00C94FC0F8FEF9FEF0895B3
:102220000F931F93CF93DF93FC01818D928D0097C5
:10223000B9F0EF010E94FC0F8C010F3F8FEF1807E0
:1022400091F0898D9A8DFC01428553856485758551
:1022500041505109610971090E945309C80105C023
:1022600080E090E002C08FEF9FEFDF91CF911F9150
:102270000F910895CF93DF93EC01888199810097A6
:1022800011F00E943118198218821D821C821B8253
:102290001A82DF91CF9108950E9493190F931F9393
:1022A000CF93DF93EC0188819981009729F02A81EF
:1022B0003B812617370788F48B016F5F7F4F0E94A1
:1022C000C918009761F0998388831B830A832C8146
:1022D0003D81232B11F4FC01108281E001C080E0DC
:1022E000DF91CF911F910F910895EF92FF920F937D
:1022F0001F93CF93DF93EC017B018A01BA010E9407
:102300004E11811104C0CE010E943A1107C01D83F5
:102310000C83B701888199810E94AE19CE01DF91AB
:10232000CF911F910F91FF90EF9008950F931F93FE
:10233000CF93DF93CDB7DEB7C755D1090FB6F89469
:10234000DEBF0FBECDBF8C0163E175E0CE0101960B
:102350000E94760FBE016F5F7F4FCE01CB960E9429
:10236000760F19A218A282E591E09F8F8E8F1BA293
:1023700021968FAD2197811113C0F801138212822B
:1023800088EE93E0A0E0B0E084839583A683B783D2
:1023900082E191E091838083128E118E148633C086
:1023A000825023E140EC51E0823048F463E175E073
:1023B000CE014E960E941F0781110EC0DECFBE01D6
:1023C000655C7F4FCE014E960E941F078823A9F2BD
:1023D000CE01CB960E94F10A49A95AA96BA97CA902
:1023E000CE014E960E945309BE01625E7F4FCE0120
:1023F00001960E94760F40EC51E0BE016F5F7F4F67
:10240000C8010E94C70FC801C95ADF4F0FB6F89420
:10241000DEBF0FBECDBFDF91CF911F910F91089509
:102420008F929F92AF92BF92CF92DF92EF92FF92E4
:10243000CF93DF93C82F89EE94E090934904809363
:102440004804CC2369F1C53010F080E00DC140E0B4
:1024500060E070E0CB010E9449058823B1F320E1E0
:10246000C29FC0011124885C9D4FFC01E254FE4FC5
:1024700020812F7751F73C96408151816281738191
:10248000443651056105710500F33497C080D18051
:10249000E280F380C114D104E104F10421F4D5CF2A
:1024A000C12CD12C760140E0C701B6010E9449053C
:1024B000882359F2809153029091540281159240E1
:1024C00021F6A0915802AA2309F4BFCF60915602C9
:1024D000709157026115710509F4B7CF209155022B
:1024E000222309F4B2CFA09307052093F90480E0DA
:1024F00030E0E1E0F0E0C82FAF01082E02C0440F49
:10250000551F0A94E2F72417350741F0982F8F5F83
:10251000983089F789E08093020597CF8093020570
:1025200020915E0230915F022115310519F040E0E3
:1025300050E008C020916C0230916D0240916E0213
:1025400050916F022093FA043093FB044093FC04F3
:102550005093FD0446015701860E971EA11CB11C25
:102560008092080590920905A0920A05B0920B0589
:10257000E0915902F0915A02F0930E05E0930D0597
:10258000B0E00E94861D860E971EA81EB91E80927E
:102590000F0590921005A0921105B092120585E0EA
:1025A000EE0FFF1F8A95E1F7E150FE4FEF2FFF2757
:1025B000E6958E0E9F1EA11CB11C80920305909281
:1025C0000405A0920505B092060520915B023091AA
:1025D0005C022115310521F0A90160E070E008C01E
:1025E000409168025091690260916A0270916B0299
:1025F000D701C60188199909AA09BB09840F951F3B
:10260000A61FB71F04C0B695A79597958795CA953D
:10261000D2F78093FE049093FF04A0930005B0933B
:102620000105853F2FE09207A105B10510F48CE06C
:1026300018C0853F9F4FA105B10510F480E111C07E
:102640008091740290917502A0917602B091770208
:1026500080930F0590931005A0931105B093120578
:1026600080E280930C0581E0DF91CF91FF90EF90A5
:10267000DF90CF90BF90AF909F908F90089590E0A3
:10268000FC01EC54FF4F2491FC01E056FF4F849174
:10269000882399F090E0880F991FFC01EA56FF4FBC
:1026A000A591B491FC01E457FF4F859194918FB7A8
:1026B000F894EC91E22BEC938FBF0895CF93DF93C6
:1026C000CDB7DEB7E4970FB6F894DEBF0FBECDBF2F
:1026D000789484B5826084BD84B5816084BD85B5FD
:1026E000826085BD85B5816085BD80916E00816009
:1026F00080936E00109281008091810082608093AF
:1027000081008091810081608093810080918000B0
:102710008160809380008091B10084608093B100DB
:102720008091B00081608093B00080917A008460D5
:1027300080937A0080917A00826080937A00809101
:102740007A00816080937A0080917A00806880931B
:102750007A001092C100E0915A04F0915B0482E08B
:102760008083E0915604F09157041082E091580460
:10277000F09159048FEC808310926204E0915E0422
:10278000F0915F0486E08083E0915C04F0915D0449
:10279000808180618083E0915C04F0915D048081A0
:1027A00088608083E0915C04F0915D0480818068A2
:1027B0008083E0915C04F0915D0480818F7D808353
:1027C00061E671E08AE494E00E948E028AE00E9451
:1027D0003F131092F4041092F2041092EF0410923E
:1027E000EE048AE08093ED040E948A036B017C0171
:1027F0008091ED040E943F1361E08091ED040E94FE
:1028000019031FB7F89480914702811124C0EAEAA6
:10281000F0E08491EEEBF0E09491E82FF0E0EE0F21
:10282000FF1FEA56FF4FA591B491EC91E92321F4E3
:1028300061E08AE00E9419038AE00E943F138CB590
:1028400080618CBD8CB580648CBD8DE00E943F138F
:102850008BE00E943F13809147028F5F8093470275
:102860001FBF82E58093E7041092E8048091E7049B
:102870009091E8040E94500C1AE08FEF0E94110C16
:102880001150D9F789EE94E00E94530C20E030E01B
:10289000A90160E089EE94E00E94690C182F8093F2
:1028A000F304813049F00E948A036C197D09613D6F
:1028B000774060F381E054C02AEA31E040E050E024
:1028C00068E089EE94E00E94690C82FF03C01093D7
:1028D000F4040EC014E00E94180C8093F30411500D
:1028E000D1F78A3A11F082E03BC082E08093F40491
:1028F0008091F404823021F0812C912C540105C088
:10290000812C912CA12C30E4B32E20E030E0A901E1
:1029100067E389EE94E00E94690CA501940169E2E5
:1029200089EE94E00E94690C8093F304882349F0B7
:102930000E948A036C197D09613D774030F388E07D
:102940000FC08091F404823001F520E030E0A9014D
:102950006AE389EE94E00E94690C882341F086E0E6
:102960008093EE0489EE94E00E94060C97C00E94CA
:10297000180C807C803C19F483E08093F4040E945E
:10298000180C0E94180C0E94180C89EE94E00E940A
:10299000060C80E58093E7041092E80481E00E9431
:1029A0001012882329F080911805882341F076C001
:1029B00080E00E941012882309F470C0F4CF809147
:1029C0000C05803109F582E08093180510922A05E4
:1029D00010922B0510922C0510922D0580910D055B
:1029E00090910E05A0E0B0E025E0880F991FAA1F86
:1029F000BB1F2A95D1F78093260590932705A093B6
:102A00002805B09329051EC0803209F047C083E035
:102A10008093180540910F055091100560911105A4
:102A20007091120540932A0550932B0560932C0555
:102A300070932D0526E235E085EF94E00E94B606FE
:102A4000882361F185EF94E090932F0580932E0504
:102A500081E0809317051092190510921A051092C3
:102A60001B0510921C0510921D0510921E05109258
:102A70001F05109220051092210510922205109238
:102A800023051092240510922505CE0101960E947F
:102A90009611EA8DFB8D309721F439C063E771E020
:102AA00038C08581882399F16FE771E0CE010196E6
:102AB0000E948E021CA21BA21EA21DA218A61FA26B
:102AC0004AE050E065E871E0CE0183960E947511FE
:102AD000BE016D5D7F4FCE0101960E94A2028A8DDC
:102AE0009B8D009741F00E94F10A8A8D9B8D0E9478
:102AF00031181B8E1A8EBE016D5D7F4F8AE494E003
:102B00000E94A2028BA19CA10E94311806C060E91C
:102B100071E08AE494E00E948E0290E4D92ECE0106
:102B200001967C01D0927C0080917A008064809331
:102B30007A0080917A0086FDFCCF609178008091C8
:102B400079001CA21BA21EA21DA218A61FA270E043
:102B5000782B072E000C880B990B0E948D1C20E00F
:102B600030EC4FE754E40E942A1720E030E44CE9AF
:102B700055E40E94C81C20E030E040E251E40E948D
:102B80002A17870122E044E00E94C419009771F0DF
:102B9000FC0101900020E9F73197AF01481B590B68
:102BA000BC01CE0183960E94751104C0CE018396AC
:102BB0000E943A1160910401709105018091060113
:102BC000909107011AA619A61CA61BA61EA61DA653
:102BD0002AE0A7010E94E419F70101900020E9F71B
:102BE0003197AF014E195F09B701CE0189960E9456
:102BF00075111A8219821C821B821E821D8269A590
:102C00007AA56115710529F04DA55EA5C7010E9441
:102C100075110D811E810D5F1F4FB801C7010E9404
:102C20004E11882309F4B8C029813A818D819E8193
:102C300062EA71E0820F931F0E94AE191E830D831A
:102C40008FA198A5ABA0BCA00D811E81A114B104D9
:102C500009F49EC00097A1F0080F191FB801C70121
:102C60000E944E11882309F493C029813A818D81F5
:102C70009E81B501820F931F0E94AE191E830D83A2
:102C800018AA1FA61AAA19AA1CAA1BAA69817A81C6
:102C90006115710531F04D815E81CE018F960E94E4
:102CA000751189819A810E94311889A59AA50E947F
:102CB00031188BA19CA10E943118C7010E94961166
:102CC000EA8DFB8D3097E9F085818823D1F0BE0134
:102CD000615D7F4FC7010E94A2028A8D9B8D009784
:102CE00041F00E94F10A8A8D9B8D0E9431181B8E43
:102CF0001A8EBE01615D7F4F8AE494E00E94A202B9
:102D000006C066EA71E08AE494E00E948E02809137
:102D1000040190910501A0910601B091070101966F
:102D2000A11DB11D8093040190930501A09306019C
:102D3000B09307010E9465032B013C0188EE882EA9
:102D400083E0982EA12CB12C0E946503DC01CB01FD
:102D500084199509A609B709883E9340A105B105D4
:102D600058F091E0891A9108A108B10828EE420EA6
:102D700023E0521E611C711C81149104A104B10452
:102D800019F78FA598A90E9431180E94F901CACE9F
:102D9000C7010E943A1174CFC7010E943A1150CF67
:102DA000EAE4F4E01382128288EE93E0A0E0B0E05F
:102DB00084839583A683B78322E231E03183208325
:102DC00025EC30E03587248724EC30E037872687F0
:102DD00020EC30E0318B208B21EC30E0338B228BE8
:102DE00022EC30E0358B248B26EC30E0378B268BC1
:102DF000118E128E138E148EE2E3F5E0138212828E
:102E000084839583A683B78382E391E09183808353
:102E1000E7EEF4E080E580831182E9EEF4E01582CC
:102E200016821186138682E090E0A0E0B0E08487ED
:102E30009587A687B78713A215A614A682E591E009
:102E400093A782A717A60895EE0FFF1F0590F49190
:102E5000E02D09940E943E170C944C1D0E94451DC4
:102E600058F00E943E1D40F029F45F3F29F00C9479
:102E7000351D51110C94801D0C943B1D0E945D1D4D
:102E800068F39923B1F3552391F3951B550BBB2799
:102E9000AA2762177307840738F09F5F5F4F220FDE
:102EA000331F441FAA1FA9F335D00E2E3AF0E0E8D5
:102EB00032D091505040E695001CCAF72BD0FE2F1F
:102EC00029D0660F771F881FBB1F261737074807B3
:102ED000AB07B0E809F0BB0B802DBF01FF2793586B
:102EE0005F4F3AF09E3F510578F00C94351D0C94DD
:102EF000801D5F3FE4F3983ED4F386957795679500
:102F0000B795F7959F5FC9F7880F911D969587959F
:102F100097F90895E1E0660F771F881FBB1F6217BE
:102F200073078407BA0720F0621B730B840BBA0B7C
:102F3000EE1F88F7E0950895CF93DF9382309105D7
:102F400010F482E090E0E0914005F091410520E02E
:102F500030E0C0E0D0E0309711F140815181481756
:102F60005907C0F04817590761F48281938120976F
:102F700019F09B838A832BC0909341058093400571
:102F800026C02115310519F04217530718F49A018C
:102F9000BE01DF01EF010280F381E02DDCCF2115BE
:102FA000310509F1281B390B2430310590F41296B4
:102FB0008D919C9113976115710521F0FB0193830D
:102FC000828304C09093410580934005FD013296B1
:102FD00044C0FD01E20FF31F819391932250310908
:102FE0002D933C933AC020913E0530913F05232B11
:102FF00041F420910A0130910B0130933F05209359
:103000003E0520910801309109012115310541F457
:103010002DB73EB740910C0150910D01241B350B8B
:10302000E0913E05F0913F05E217F307A0F42E1B57
:103030003F0B2817390778F0AC014E5F5F4F24171C
:10304000350748F04E0F5F1F50933F0540933E05F4
:103050008193919302C0E0E0F0E0CF01DF91CF9146
:1030600008950F931F93CF93DF93009709F48CC0BB
:10307000FC013297138212820091400510914105A4
:103080000115110581F420813181820F931F209158
:103090003E0530913F052817390779F5F0933F0534
:1030A000E0933E0571C0D80140E050E0AE17BF0785
:1030B00050F412962D913C911397AD0121153105D5
:1030C00009F1D901F3CF9D01DA01338322836081B5
:1030D0007181860F971F8217930769F4EC0128818D
:1030E0003981260F371F2E5F3F4F318320838A811E
:1030F0009B8193838283452B29F4F0934105E093D0
:10310000400542C01396FC93EE931297ED0149914E
:1031100059919E01240F351FE217F30771F4808146
:103120009181840F951F029611969C938E938281B4
:10313000938113969C938E931297E0E0F0E0D80170
:1031400012968D919C911397009719F0F8018C01BC
:10315000F6CF8D919C9198012E5F3F4F820F931F68
:1031600020913E0530913F052817390769F43097C3
:1031700029F4109241051092400502C01382128278
:1031800010933F0500933E05DF91CF911F910F9162
:103190000895A0E0B0E0EFECF8E10C94951DEC018F
:1031A000009721F4CB010E949C17B8C0FC01E60FE8
:1031B000F71F9C0122503109E217F30708F4ACC055
:1031C000D9010D911C91119706171707B0F0053022
:1031D000110508F49FC0C80104978617970708F4E3
:1031E00099C002501109061B170B019311936D939F
:1031F0007C93CF010E9431188DC05B01A01AB10AE7
:103200004C01800E911EA0914005B091410540E017
:1032100050E0E12CF12C109709F44AC0A815B9052B
:10322000D1F56D907C901197630182E0C80ED11C9E
:10323000CA14DB0480F1A3014A195B096A0182E028
:10324000C80ED11C1296BC9012971396AC91B5E0A3
:10325000CB16D10440F0B282A38351834083D901BD
:103260006D937C930AC00E5F1F4FC301800F911FA7
:10327000F90191838083EB2DFA2FE114F10431F0F1
:10328000D7011396FC93EE93129744C0F093410537
:10329000E09340053FC08D919C91119748175907C5
:1032A00008F4AC017D0112960D90BC91A02DB3CF16
:1032B00080913E0590913F0588159905E1F44617E8
:1032C0005707C8F48091080190910901009741F4D3
:1032D0008DB79EB740910C0150910D01841B950B49
:1032E000E817F907C8F4F0933F05E0933E05F901AC
:1032F000718360830FC0CB010E949C177C010097F3
:1033000059F0A801BE010E94A519CE010E943118F2
:10331000C70104C0CE0102C080E090E0CDB7DEB7A7
:10332000EEE00C94B11D81E090E0F8940C94D71D70
:10333000FB01DC0104C08D910190801921F4415002
:103340005040C8F7881B990B0895FB01DC0102C0AF
:1033500001900D9241505040D8F70895FB01DC01D7
:1033600001900D920020E1F70895FB01DC0141502E
:10337000504048F001900D920020C9F701C01D9205
:1033800041505040E0F70895EF920F931F93CF9371
:10339000DF93E80147FD02C034E001C034E1E42FCF
:1033A000440FFF0BF7FF03C0F195E195F109E32E00
:1033B000022F2E2FAE010E94151ACE01DF91CF9160
:1033C0001F910F91EF900895BB272A3051F4992354
:1033D00042F4BDE290958095709561957F4F8F4F37
:1033E0009F4F0C94F419BB27FA01A62F62177105A1
:1033F00081059105330B30FB66F0AA27660F771F16
:10340000881F991FAA1FA21710F0A21B639538509E
:10341000A9F7A05DAA3308F0A95DA19336F7B11111
:10342000B1931082CA010C947B1C4F925F926F92F1
:103430007F929F92AF92BF92CF92DF92EF92FF92D4
:103440000F931F93CF93DF93CDB7DEB729970FB6B6
:10345000F894DEBF0FBECDBF6A01122FB02E2BE352
:10346000201720F0FF24F394F00E02C0BCE3FB2EE3
:103470000F2D27E0AE014F5F5F4F0E94A31BAC01F1
:103480008981982F9970913031F0E1FC06C0E0FEFF
:1034900006C090E205C09DE203C09BE201C090E03F
:1034A000EE2DE07183FF3CC0911102C083E001C0AA
:1034B00084E0811718F4212F281B01C020E0E111BE
:1034C0000BC0F601822F30E2882319F0319381502E
:1034D000FBCFC20ED11C20E0992329F0D6019C938A
:1034E000F60131966F01C6010396E2FE0AC03EE482
:1034F000D6013C9341E411964C93119712963C935C
:1035000006C03EE6F601308341E641833283FC018A
:10351000322F40E2332309F442C041933150FACFB5
:1035200082FF44C0911102C083E001C084E0811792
:1035300018F4212F281B01C020E0E1110BC0F60177
:10354000822F30E2882319F031938150FBCFC20ED5
:10355000D11C20E0992329F0D6019C93F6013196E5
:103560006F01C6010396E2FE0BC039E4D6013C931D
:103570003EE411963C93119736E412963C9307C0B3
:1035800039E6F60130833EE6318336E63283FC01CC
:10359000322F40E2332319F041933150FBCFFC012D
:1035A000E20FF11D10828EEF9FEFB7C0F1E0911195
:1035B00001C0F0E06F2F70E01416150624F49A0194
:1035C0002F5F3F4F02C021E030E0260F371FBB20A6
:1035D00029F06B2D70E06F5F7F4F02C060E070E0FC
:1035E000260F371F612F70E0261737071CF4121BB8
:1035F000212F01C020E03E2D387159F4D601322F21
:1036000060E2332319F06D933150FBCFC20ED11C11
:1036100020E0FF2331F0D6019C93B6016F5F7F4F0E
:103620006B01E1110BC0F601922F30E3992319F0E1
:1036300031939150FBCFC20ED11C20E09F2D940FEF
:103640003A81782F7071A72E84FF03C0313309F4BB
:103650009150191624F4993018F098E001C091E0C7
:10366000E42F852F57FF02C0E0E080E06E2F782F17
:10367000E0E0F0E0AEE29A2E3A01691A71082A0100
:10368000461A570A0B2D10E01195019511096F3F4D
:103690008FEF780729F4D6019C92C60101966C0140
:1036A0004617570784F0661677066CF47F01E40C22
:1036B000F51CA1E0B0E0AC0FBD1FEA0EFB1ED70168
:1036C0001196BC9002C090E3B92E615071093196F9
:1036D000C60101967C016017710724F0D601BC92E7
:1036E0006C01D5CF6417750741F4363320F43533B8
:1036F00021F4A11002C081E3B82EF601B082F701D7
:10370000822F90E2882319F091938150FBCFF7012B
:10371000E20FF11D108280E090E029960FB6F89438
:10372000DEBF0FBECDBFDF91CF911F910F91FF90F4
:10373000EF90DF90CF90BF90AF909F907F906F9071
:103740005F904F900895283008F027E03327DA0182
:10375000990F311D87FD916000966105710539F45F
:1037600032602E5F3D9330E32A95E1F708959F3F45
:1037700030F080387105610509F03C5F3C5F3D9396
:10378000913008F08068911DDF93CF931F930F93C2
:10379000FF92EF92192F987F9695E92F969596951F
:1037A000E90FFF27EE5DFE4F99273327EE24FF2414
:1037B000A701E70105900894079428F4360FE71E47
:1037C000F81E491F511D660F771F881F991F069409
:1037D000A1F70590079428F4E70EF81E491F561F1D
:1037E000C11D770F881F991F661F0694A1F70590CA
:1037F000079428F4F80E491F561FC71FD11D880FC4
:10380000991F661F771F0694A1F70590079420F46F
:10381000490F561FC71FD81F990F661F771F881F94
:103820000694A9F784911095177041F0D695C79525
:1038300057954795F794E7941A95C1F7E8ECF0E0AF
:1038400068941590159135916591959105907FE259
:103850007395E118F10A430B560BC90BD009C0F759
:10386000E10CF11E431F561FC91FD01D7EF470339B
:1038700011F48A95E6CFE894015030F0080F0AF46D
:103880000027021708F4202F2395022F7A3328F0FF
:1038900079E37D932A95E9F710C07D932A9589F6FF
:1038A000069497956795379517951794E118F10A3F
:1038B000430B560BC90BD00998F023957E91739555
:1038C0007A3308F070E37C932013B8F77E9170612F
:1038D0007D9330F0839571E37D9370E32A95E1F752
:1038E0001124EF90FF900F911F91CF91DF919927B5
:1038F00087FD90950895DC01FC01672F7191772376
:10390000E1F7329704C07C916D9370836291AE179A
:10391000BF07C8F30895E89409C097FB3EF490955B
:103920008095709561957F4F8F4F9F4F9923A9F098
:10393000F92F96E9BB279395F69587957795679527
:10394000B795F111F8CFFAF4BB0F11F460FF1BC06B
:103950006F5F7F4F8F4F9F4F16C0882311F096E9FE
:1039600011C0772321F09EE8872F762F05C06623AC
:1039700071F096E8862F70E060E02AF09A95660F65
:10398000771F881FDAF7880F9695879597F908951E
:103990000E94DB1C0C944C1D0E943E1D38F00E94BE
:1039A000451D20F0952311F00C94351D0C943B1D02
:1039B00011240C94801D0E945D1D70F3959FC1F32E
:1039C000950F50E0551F629FF001729FBB27F00DCD
:1039D000B11D639FAA27F00DB11DAA1F649F662722
:1039E000B00DA11D661F829F2227B00DA11D621F71
:1039F000739FB00DA11D621F839FA00D611D221F2B
:103A0000749F3327A00D611D231F849F600D211D0E
:103A1000822F762F6A2F11249F5750409AF0F1F091
:103A200088234AF0EE0FFF1FBB1F661F771F881FFA
:103A300091505040A9F79E3F510580F00C94351DE0
:103A40000C94801D5F3FE4F3983ED4F38695779500
:103A50006795B795F795E7959F5FC1F7FE2B880FA0
:103A6000911D9695879597F9089597F99F6780E836
:103A700070E060E008959FEF80EC089500240A94C0
:103A80001616170618060906089500240A94121639
:103A90001306140605060895092E0394000C11F46C
:103AA000882352F0BB0F40F4BF2B11F460FF04C019
:103AB0006F5F7F4F8F4F9F4F089557FD9058440F72
:103AC000551F59F05F3F71F04795880F97FB991F7D
:103AD00061F09F3F79F0879508951216130614063A
:103AE000551FF2CF4695F1DF08C0161617061806C7
:103AF000991FF1CF86957105610508940895E894A2
:103B0000BB2766277727CB0197F908950E94C81D28
:103B1000A59F900DB49F900DA49F800D911D112421
:103B200008952F923F924F925F926F927F928F9261
:103B30009F92AF92BF92CF92DF92EF92FF920F933C
:103B40001F93CF93DF93CDB7DEB7CA1BDB0B0FB646
:103B5000F894DEBF0FBECDBF09942A883988488803
:103B60005F846E847D848C849B84AA84B984C88499
:103B7000DF80EE80FD800C811B81AA81B981CE0F90
:103B8000D11D0FB6F894DEBF0FBECDBFED01089575
:103B9000A29FB001B39FC001A39F700D811D11248E
:103BA000911DB29F700D811D1124911D0895F894EF
:023BB000FFCF45
:103BB200FFFFFFFF0100000000004205800000003F
:103BC2000000F7085A0FD608061110114B09000021
:103BD200000090010C01590137014B01D70100008F
:103BE2000000570243023C0239023602350200004D
:103BF20000004C110C014C114C114C114C110000E5
:103C020000007D020C01000000004C110C010D0AA5
:103C120000496E697469616C697A696E67204361F3
:103C220072640043617264204661696C6564002CB1
:103C3200202C202C0049442C2054656D70202C002F
:103C4200436F756C646E74206F70656E2066696C6C
:103C52006500202C2000636F756C646E74206F7099
:103C6200656E20746865206C6F672066696C6500FC
:083C72004C4F472E63737600EE
:00000001FF
